{
  "_format": "hh-sol-artifact-1",
  "contractName": "Web3Mint",
  "sourceName": "contracts/Web3Mint.sol",
  "abi": [
    {
      "inputs": [],
      "stateMutability": "nonpayable",
      "type": "constructor"
    },
    {
      "inputs": [
        {
          "internalType": "address",
          "name": "sender",
          "type": "address"
        },
        {
          "internalType": "uint256",
          "name": "tokenId",
          "type": "uint256"
        },
        {
          "internalType": "address",
          "name": "owner",
          "type": "address"
        }
      ],
      "name": "ERC721IncorrectOwner",
      "type": "error"
    },
    {
      "inputs": [
        {
          "internalType": "address",
          "name": "operator",
          "type": "address"
        },
        {
          "internalType": "uint256",
          "name": "tokenId",
          "type": "uint256"
        }
      ],
      "name": "ERC721InsufficientApproval",
      "type": "error"
    },
    {
      "inputs": [
        {
          "internalType": "address",
          "name": "approver",
          "type": "address"
        }
      ],
      "name": "ERC721InvalidApprover",
      "type": "error"
    },
    {
      "inputs": [
        {
          "internalType": "address",
          "name": "operator",
          "type": "address"
        }
      ],
      "name": "ERC721InvalidOperator",
      "type": "error"
    },
    {
      "inputs": [
        {
          "internalType": "address",
          "name": "owner",
          "type": "address"
        }
      ],
      "name": "ERC721InvalidOwner",
      "type": "error"
    },
    {
      "inputs": [
        {
          "internalType": "address",
          "name": "receiver",
          "type": "address"
        }
      ],
      "name": "ERC721InvalidReceiver",
      "type": "error"
    },
    {
      "inputs": [
        {
          "internalType": "address",
          "name": "sender",
          "type": "address"
        }
      ],
      "name": "ERC721InvalidSender",
      "type": "error"
    },
    {
      "inputs": [
        {
          "internalType": "uint256",
          "name": "tokenId",
          "type": "uint256"
        }
      ],
      "name": "ERC721NonexistentToken",
      "type": "error"
    },
    {
      "anonymous": false,
      "inputs": [
        {
          "indexed": true,
          "internalType": "address",
          "name": "owner",
          "type": "address"
        },
        {
          "indexed": true,
          "internalType": "address",
          "name": "approved",
          "type": "address"
        },
        {
          "indexed": true,
          "internalType": "uint256",
          "name": "tokenId",
          "type": "uint256"
        }
      ],
      "name": "Approval",
      "type": "event"
    },
    {
      "anonymous": false,
      "inputs": [
        {
          "indexed": true,
          "internalType": "address",
          "name": "owner",
          "type": "address"
        },
        {
          "indexed": true,
          "internalType": "address",
          "name": "operator",
          "type": "address"
        },
        {
          "indexed": false,
          "internalType": "bool",
          "name": "approved",
          "type": "bool"
        }
      ],
      "name": "ApprovalForAll",
      "type": "event"
    },
    {
      "anonymous": false,
      "inputs": [
        {
          "indexed": true,
          "internalType": "address",
          "name": "from",
          "type": "address"
        },
        {
          "indexed": true,
          "internalType": "address",
          "name": "to",
          "type": "address"
        },
        {
          "indexed": true,
          "internalType": "uint256",
          "name": "tokenId",
          "type": "uint256"
        }
      ],
      "name": "Transfer",
      "type": "event"
    },
    {
      "inputs": [
        {
          "internalType": "address",
          "name": "to",
          "type": "address"
        },
        {
          "internalType": "uint256",
          "name": "tokenId",
          "type": "uint256"
        }
      ],
      "name": "approve",
      "outputs": [],
      "stateMutability": "nonpayable",
      "type": "function"
    },
    {
      "inputs": [
        {
          "internalType": "address",
          "name": "owner",
          "type": "address"
        }
      ],
      "name": "balanceOf",
      "outputs": [
        {
          "internalType": "uint256",
          "name": "",
          "type": "uint256"
        }
      ],
      "stateMutability": "view",
      "type": "function"
    },
    {
      "inputs": [
        {
          "internalType": "uint256",
          "name": "tokenId",
          "type": "uint256"
        }
      ],
      "name": "getApproved",
      "outputs": [
        {
          "internalType": "address",
          "name": "",
          "type": "address"
        }
      ],
      "stateMutability": "view",
      "type": "function"
    },
    {
      "inputs": [
        {
          "internalType": "address",
          "name": "owner",
          "type": "address"
        },
        {
          "internalType": "address",
          "name": "operator",
          "type": "address"
        }
      ],
      "name": "isApprovedForAll",
      "outputs": [
        {
          "internalType": "bool",
          "name": "",
          "type": "bool"
        }
      ],
      "stateMutability": "view",
      "type": "function"
    },
    {
      "inputs": [
        {
          "internalType": "string",
          "name": "name",
          "type": "string"
        },
        {
          "internalType": "string",
          "name": "imageURI",
          "type": "string"
        }
      ],
      "name": "mintIpfsNFT",
      "outputs": [],
      "stateMutability": "nonpayable",
      "type": "function"
    },
    {
      "inputs": [],
      "name": "name",
      "outputs": [
        {
          "internalType": "string",
          "name": "",
          "type": "string"
        }
      ],
      "stateMutability": "view",
      "type": "function"
    },
    {
      "inputs": [
        {
          "internalType": "uint256",
          "name": "tokenId",
          "type": "uint256"
        }
      ],
      "name": "ownerOf",
      "outputs": [
        {
          "internalType": "address",
          "name": "",
          "type": "address"
        }
      ],
      "stateMutability": "view",
      "type": "function"
    },
    {
      "inputs": [
        {
          "internalType": "address",
          "name": "from",
          "type": "address"
        },
        {
          "internalType": "address",
          "name": "to",
          "type": "address"
        },
        {
          "internalType": "uint256",
          "name": "tokenId",
          "type": "uint256"
        }
      ],
      "name": "safeTransferFrom",
      "outputs": [],
      "stateMutability": "nonpayable",
      "type": "function"
    },
    {
      "inputs": [
        {
          "internalType": "address",
          "name": "from",
          "type": "address"
        },
        {
          "internalType": "address",
          "name": "to",
          "type": "address"
        },
        {
          "internalType": "uint256",
          "name": "tokenId",
          "type": "uint256"
        },
        {
          "internalType": "bytes",
          "name": "data",
          "type": "bytes"
        }
      ],
      "name": "safeTransferFrom",
      "outputs": [],
      "stateMutability": "nonpayable",
      "type": "function"
    },
    {
      "inputs": [
        {
          "internalType": "address",
          "name": "operator",
          "type": "address"
        },
        {
          "internalType": "bool",
          "name": "approved",
          "type": "bool"
        }
      ],
      "name": "setApprovalForAll",
      "outputs": [],
      "stateMutability": "nonpayable",
      "type": "function"
    },
    {
      "inputs": [
        {
          "internalType": "bytes4",
          "name": "interfaceId",
          "type": "bytes4"
        }
      ],
      "name": "supportsInterface",
      "outputs": [
        {
          "internalType": "bool",
          "name": "",
          "type": "bool"
        }
      ],
      "stateMutability": "view",
      "type": "function"
    },
    {
      "inputs": [],
      "name": "symbol",
      "outputs": [
        {
          "internalType": "string",
          "name": "",
          "type": "string"
        }
      ],
      "stateMutability": "view",
      "type": "function"
    },
    {
      "inputs": [
        {
          "internalType": "uint256",
          "name": "_tokenId",
          "type": "uint256"
        }
      ],
      "name": "tokenURI",
      "outputs": [
        {
          "internalType": "string",
          "name": "",
          "type": "string"
        }
      ],
      "stateMutability": "view",
      "type": "function"
    },
    {
      "inputs": [
        {
          "internalType": "address",
          "name": "from",
          "type": "address"
        },
        {
          "internalType": "address",
          "name": "to",
          "type": "address"
        },
        {
          "internalType": "uint256",
          "name": "tokenId",
          "type": "uint256"
        }
      ],
      "name": "transferFrom",
      "outputs": [],
      "stateMutability": "nonpayable",
      "type": "function"
    }
  ],
  "bytecode": "0x60806040523480156200001157600080fd5b506040518060400160405280600381526020017f4e465400000000000000000000000000000000000000000000000000000000008152506040518060400160405280600381526020017f6e6674000000000000000000000000000000000000000000000000000000000081525081600090816200008f919062000477565b508060019081620000a1919062000477565b505050620000ea6040518060400160405280601881526020017f54686973206973206d79204e465420636f6e74726163742e0000000000000000815250620000f060201b60201c565b62000640565b6200019081604051602401620001079190620005ed565b6040516020818303038152906040527f41304fac000000000000000000000000000000000000000000000000000000007bffffffffffffffffffffffffffffffffffffffffffffffffffffffff19166020820180517bffffffffffffffffffffffffffffffffffffffffffffffffffffffff83818316178352505050506200019360201b60201c565b50565b620001b981620001b4620001bc60201b6200095117620001dd60201b60201c565b60201c565b50565b60006a636f6e736f6c652e6c6f679050600080835160208501845afa505050565b620001f160201b6200190c17819050919050565b620001fb62000611565b565b600081519050919050565b7f4e487b7100000000000000000000000000000000000000000000000000000000600052604160045260246000fd5b7f4e487b7100000000000000000000000000000000000000000000000000000000600052602260045260246000fd5b600060028204905060018216806200027f57607f821691505b60208210810362000295576200029462000237565b5b50919050565b60008190508160005260206000209050919050565b60006020601f8301049050919050565b600082821b905092915050565b600060088302620002ff7fffffffffffffffffffffffffffffffffffffffffffffffffffffffffffffffff82620002c0565b6200030b8683620002c0565b95508019841693508086168417925050509392505050565b6000819050919050565b6000819050919050565b600062000358620003526200034c8462000323565b6200032d565b62000323565b9050919050565b6000819050919050565b620003748362000337565b6200038c62000383826200035f565b848454620002cd565b825550505050565b600090565b620003a362000394565b620003b081848462000369565b505050565b5b81811015620003d857620003cc60008262000399565b600181019050620003b6565b5050565b601f8211156200042757620003f1816200029b565b620003fc84620002b0565b810160208510156200040c578190505b620004246200041b85620002b0565b830182620003b5565b50505b505050565b600082821c905092915050565b60006200044c600019846008026200042c565b1980831691505092915050565b600062000467838362000439565b9150826002028217905092915050565b6200048282620001fd565b67ffffffffffffffff8111156200049e576200049d62000208565b5b620004aa825462000266565b620004b7828285620003dc565b600060209050601f831160018114620004ef5760008415620004da578287015190505b620004e6858262000459565b86555062000556565b601f198416620004ff866200029b565b60005b82811015620005295784890151825560018201915060208501945060208101905062000502565b8683101562000549578489015162000545601f89168262000439565b8355505b6001600288020188555050505b505050505050565b600082825260208201905092915050565b60005b838110156200058f57808201518184015260208101905062000572565b60008484015250505050565b6000601f19601f8301169050919050565b6000620005b982620001fd565b620005c581856200055e565b9350620005d78185602086016200056f565b620005e2816200059b565b840191505092915050565b60006020820190508181036000830152620006098184620005ac565b905092915050565b7f4e487b7100000000000000000000000000000000000000000000000000000000600052605160045260246000fd5b61292680620006506000396000f3fe608060405234801561001057600080fd5b50600436106100ea5760003560e01c806370a082311161008c578063b88d4fde11610066578063b88d4fde1461025b578063c87b56dd14610277578063e985e9c5146102a7578063eb00195d146102d7576100ea565b806370a08231146101f157806395d89b4114610221578063a22cb4651461023f576100ea565b8063095ea7b3116100c8578063095ea7b31461016d57806323b872dd1461018957806342842e0e146101a55780636352211e146101c1576100ea565b806301ffc9a7146100ef57806306fdde031461011f578063081812fc1461013d575b600080fd5b61010960048036038101906101049190611982565b6102f3565b60405161011691906119ca565b60405180910390f35b6101276103d5565b6040516101349190611a75565b60405180910390f35b61015760048036038101906101529190611acd565b610467565b6040516101649190611b3b565b60405180910390f35b61018760048036038101906101829190611b82565b610483565b005b6101a3600480360381019061019e9190611bc2565b610499565b005b6101bf60048036038101906101ba9190611bc2565b61059b565b005b6101db60048036038101906101d69190611acd565b6105bb565b6040516101e89190611b3b565b60405180910390f35b61020b60048036038101906102069190611c15565b6105cd565b6040516102189190611c51565b60405180910390f35b610229610687565b6040516102369190611a75565b60405180910390f35b61025960048036038101906102549190611c98565b610719565b005b61027560048036038101906102709190611e0d565b61072f565b005b610291600480360381019061028c9190611acd565b61074c565b60405161029e9190611a75565b60405180910390f35b6102c160048036038101906102bc9190611e90565b6107fc565b6040516102ce91906119ca565b60405180910390f35b6102f160048036038101906102ec9190611f71565b610890565b005b60007f80ac58cd000000000000000000000000000000000000000000000000000000007bffffffffffffffffffffffffffffffffffffffffffffffffffffffff1916827bffffffffffffffffffffffffffffffffffffffffffffffffffffffff191614806103be57507f5b5e139f000000000000000000000000000000000000000000000000000000007bffffffffffffffffffffffffffffffffffffffffffffffffffffffff1916827bffffffffffffffffffffffffffffffffffffffffffffffffffffffff1916145b806103ce57506103cd82610972565b5b9050919050565b6060600080546103e490612018565b80601f016020809104026020016040519081016040528092919081815260200182805461041090612018565b801561045d5780601f106104325761010080835404028352916020019161045d565b820191906000526020600020905b81548152906001019060200180831161044057829003601f168201915b5050505050905090565b6000610472826109dc565b5061047c82610a64565b9050919050565b6104958282610490610aa1565b610aa9565b5050565b600073ffffffffffffffffffffffffffffffffffffffff168273ffffffffffffffffffffffffffffffffffffffff160361050b5760006040517f64a0ae920000000000000000000000000000000000000000000000000000000081526004016105029190611b3b565b60405180910390fd5b600061051f838361051a610aa1565b610abb565b90508373ffffffffffffffffffffffffffffffffffffffff168173ffffffffffffffffffffffffffffffffffffffff1614610595578382826040517f64283d7b00000000000000000000000000000000000000000000000000000000815260040161058c93929190612049565b60405180910390fd5b50505050565b6105b68383836040518060200160405280600081525061072f565b505050565b60006105c6826109dc565b9050919050565b60008073ffffffffffffffffffffffffffffffffffffffff168273ffffffffffffffffffffffffffffffffffffffff16036106405760006040517f89c62b640000000000000000000000000000000000000000000000000000000081526004016106379190611b3b565b60405180910390fd5b600360008373ffffffffffffffffffffffffffffffffffffffff1673ffffffffffffffffffffffffffffffffffffffff168152602001908152602001600020549050919050565b60606001805461069690612018565b80601f01602080910402602001604051908101604052809291908181526020018280546106c290612018565b801561070f5780601f106106e45761010080835404028352916020019161070f565b820191906000526020600020905b8154815290600101906020018083116106f257829003601f168201915b5050505050905090565b61072b610724610aa1565b8383610cd5565b5050565b61073a848484610499565b61074684848484610e44565b50505050565b606060006107cc6006848154811061076757610766612080565b5b906000526020600020906002020160000161078185610ffb565b6006868154811061079557610794612080565b5b90600052602060002090600202016001016040516020016107b8939291906122d9565b6040516020818303038152906040526110c9565b90506000816040516020016107e19190612382565b60405160208183030381529060405290508092505050919050565b6000600560008473ffffffffffffffffffffffffffffffffffffffff1673ffffffffffffffffffffffffffffffffffffffff16815260200190815260200160002060008373ffffffffffffffffffffffffffffffffffffffff1673ffffffffffffffffffffffffffffffffffffffff16815260200190815260200160002060009054906101000a900460ff16905092915050565b600060075490506108a1338261123b565b6006604051806040016040528085815260200184815250908060018154018082558091505060019003906000526020600020906002020160009091909190915060008201518160000190816108f6919061253b565b50602082015181600101908161090c919061253b565b50505061093260405180606001604052806025815260200161288c602591398233611259565b600160076000828254610945919061263c565b92505081905550505050565b60006a636f6e736f6c652e6c6f679050600080835160208501845afa505050565b60007f01ffc9a7000000000000000000000000000000000000000000000000000000007bffffffffffffffffffffffffffffffffffffffffffffffffffffffff1916827bffffffffffffffffffffffffffffffffffffffffffffffffffffffff1916149050919050565b6000806109e8836112f8565b9050600073ffffffffffffffffffffffffffffffffffffffff168173ffffffffffffffffffffffffffffffffffffffff1603610a5b57826040517f7e273289000000000000000000000000000000000000000000000000000000008152600401610a529190611c51565b60405180910390fd5b80915050919050565b60006004600083815260200190815260200160002060009054906101000a900473ffffffffffffffffffffffffffffffffffffffff169050919050565b600033905090565b610ab68383836001611335565b505050565b600080610ac7846112f8565b9050600073ffffffffffffffffffffffffffffffffffffffff168373ffffffffffffffffffffffffffffffffffffffff1614610b0957610b088184866114fa565b5b600073ffffffffffffffffffffffffffffffffffffffff168173ffffffffffffffffffffffffffffffffffffffff1614610b9a57610b4b600085600080611335565b6001600360008373ffffffffffffffffffffffffffffffffffffffff1673ffffffffffffffffffffffffffffffffffffffff168152602001908152602001600020600082825403925050819055505b600073ffffffffffffffffffffffffffffffffffffffff168573ffffffffffffffffffffffffffffffffffffffff1614610c1d576001600360008773ffffffffffffffffffffffffffffffffffffffff1673ffffffffffffffffffffffffffffffffffffffff168152602001908152602001600020600082825401925050819055505b846002600086815260200190815260200160002060006101000a81548173ffffffffffffffffffffffffffffffffffffffff021916908373ffffffffffffffffffffffffffffffffffffffff160217905550838573ffffffffffffffffffffffffffffffffffffffff168273ffffffffffffffffffffffffffffffffffffffff167fddf252ad1be2c89b69c2b068fc378daa952ba7f163c4a11628f55a4df523b3ef60405160405180910390a4809150509392505050565b600073ffffffffffffffffffffffffffffffffffffffff168273ffffffffffffffffffffffffffffffffffffffff1603610d4657816040517f5b08ba18000000000000000000000000000000000000000000000000000000008152600401610d3d9190611b3b565b60405180910390fd5b80600560008573ffffffffffffffffffffffffffffffffffffffff1673ffffffffffffffffffffffffffffffffffffffff16815260200190815260200160002060008473ffffffffffffffffffffffffffffffffffffffff1673ffffffffffffffffffffffffffffffffffffffff16815260200190815260200160002060006101000a81548160ff0219169083151502179055508173ffffffffffffffffffffffffffffffffffffffff168373ffffffffffffffffffffffffffffffffffffffff167f17307eab39ab6107e8899845ad3d59bd9653f200f220920489ca2b5937696c3183604051610e3791906119ca565b60405180910390a3505050565b60008373ffffffffffffffffffffffffffffffffffffffff163b1115610ff5578273ffffffffffffffffffffffffffffffffffffffff1663150b7a02610e88610aa1565b8685856040518563ffffffff1660e01b8152600401610eaa94939291906126c5565b6020604051808303816000875af1925050508015610ee657506040513d601f19601f82011682018060405250810190610ee39190612726565b60015b610f6a573d8060008114610f16576040519150601f19603f3d011682016040523d82523d6000602084013e610f1b565b606091505b506000815103610f6257836040517f64a0ae92000000000000000000000000000000000000000000000000000000008152600401610f599190611b3b565b60405180910390fd5b805181602001fd5b63150b7a0260e01b7bffffffffffffffffffffffffffffffffffffffffffffffffffffffff1916817bffffffffffffffffffffffffffffffffffffffffffffffffffffffff191614610ff357836040517f64a0ae92000000000000000000000000000000000000000000000000000000008152600401610fea9190611b3b565b60405180910390fd5b505b50505050565b60606000600161100a846115be565b01905060008167ffffffffffffffff81111561102957611028611ce2565b5b6040519080825280601f01601f19166020018201604052801561105b5781602001600182028036833780820191505090505b509050600082602001820190505b6001156110be578080600190039150507f3031323334353637383961626364656600000000000000000000000000000000600a86061a8153600a85816110b2576110b1612753565b5b04945060008503611069575b819350505050919050565b606060008251036110eb57604051806020016040528060008152509050611236565b60006040518060600160405280604081526020016128b1604091399050600060036002855161111a919061263c565b6111249190612782565b600461113091906127b3565b67ffffffffffffffff81111561114957611148611ce2565b5b6040519080825280601f01601f19166020018201604052801561117b5781602001600182028036833780820191505090505b50905060018201602082018586518701602081018051600082525b828410156111f1576003840193508351603f8160121c168701518653600186019550603f81600c1c168701518653600186019550603f8160061c168701518653600186019550603f8116870151865360018601955050611196565b80825260038a51066001811461120e576002811461122157611229565b603d6001870353603d6002870353611229565b603d60018703535b5050505050505080925050505b919050565b611255828260405180602001604052806000815250611711565b5050565b6112f3838383604051602401611271939291906127f5565b6040516020818303038152906040527f1c7ec448000000000000000000000000000000000000000000000000000000007bffffffffffffffffffffffffffffffffffffffffffffffffffffffff19166020820180517bffffffffffffffffffffffffffffffffffffffffffffffffffffffff838183161783525050505061172d565b505050565b60006002600083815260200190815260200160002060009054906101000a900473ffffffffffffffffffffffffffffffffffffffff169050919050565b808061136e5750600073ffffffffffffffffffffffffffffffffffffffff168273ffffffffffffffffffffffffffffffffffffffff1614155b156114a257600061137e846109dc565b9050600073ffffffffffffffffffffffffffffffffffffffff168373ffffffffffffffffffffffffffffffffffffffff16141580156113e957508273ffffffffffffffffffffffffffffffffffffffff168173ffffffffffffffffffffffffffffffffffffffff1614155b80156113fc57506113fa81846107fc565b155b1561143e57826040517fa9fbf51f0000000000000000000000000000000000000000000000000000000081526004016114359190611b3b565b60405180910390fd5b81156114a057838573ffffffffffffffffffffffffffffffffffffffff168273ffffffffffffffffffffffffffffffffffffffff167f8c5be1e5ebec7d5bd14f71427d1e84f3dd0314c0f7b2291e5b200ac8c7c3b92560405160405180910390a45b505b836004600085815260200190815260200160002060006101000a81548173ffffffffffffffffffffffffffffffffffffffff021916908373ffffffffffffffffffffffffffffffffffffffff16021790555050505050565b611505838383611747565b6115b957600073ffffffffffffffffffffffffffffffffffffffff168373ffffffffffffffffffffffffffffffffffffffff160361157a57806040517f7e2732890000000000000000000000000000000000000000000000000000000081526004016115719190611c51565b60405180910390fd5b81816040517f177e802f0000000000000000000000000000000000000000000000000000000081526004016115b0929190612833565b60405180910390fd5b505050565b600080600090507a184f03e93ff9f4daa797ed6e38ed64bf6a1f010000000000000000831061161c577a184f03e93ff9f4daa797ed6e38ed64bf6a1f010000000000000000838161161257611611612753565b5b0492506040810190505b6d04ee2d6d415b85acef81000000008310611659576d04ee2d6d415b85acef8100000000838161164f5761164e612753565b5b0492506020810190505b662386f26fc10000831061168857662386f26fc10000838161167e5761167d612753565b5b0492506010810190505b6305f5e10083106116b1576305f5e10083816116a7576116a6612753565b5b0492506008810190505b61271083106116d65761271083816116cc576116cb612753565b5b0492506004810190505b606483106116f957606483816116ef576116ee612753565b5b0492506002810190505b600a8310611708576001810190505b80915050919050565b61171b8383611808565b6117286000848484610e44565b505050565b6117448161173c610951611901565b63ffffffff16565b50565b60008073ffffffffffffffffffffffffffffffffffffffff168373ffffffffffffffffffffffffffffffffffffffff16141580156117ff57508273ffffffffffffffffffffffffffffffffffffffff168473ffffffffffffffffffffffffffffffffffffffff1614806117c057506117bf84846107fc565b5b806117fe57508273ffffffffffffffffffffffffffffffffffffffff166117e683610a64565b73ffffffffffffffffffffffffffffffffffffffff16145b5b90509392505050565b600073ffffffffffffffffffffffffffffffffffffffff168273ffffffffffffffffffffffffffffffffffffffff160361187a5760006040517f64a0ae920000000000000000000000000000000000000000000000000000000081526004016118719190611b3b565b60405180910390fd5b600061188883836000610abb565b9050600073ffffffffffffffffffffffffffffffffffffffff168173ffffffffffffffffffffffffffffffffffffffff16146118fc5760006040517f73c6ac6e0000000000000000000000000000000000000000000000000000000081526004016118f39190611b3b565b60405180910390fd5b505050565b61190c819050919050565b61191461285c565b565b6000604051905090565b600080fd5b600080fd5b60007fffffffff0000000000000000000000000000000000000000000000000000000082169050919050565b61195f8161192a565b811461196a57600080fd5b50565b60008135905061197c81611956565b92915050565b60006020828403121561199857611997611920565b5b60006119a68482850161196d565b91505092915050565b60008115159050919050565b6119c4816119af565b82525050565b60006020820190506119df60008301846119bb565b92915050565b600081519050919050565b600082825260208201905092915050565b60005b83811015611a1f578082015181840152602081019050611a04565b60008484015250505050565b6000601f19601f8301169050919050565b6000611a47826119e5565b611a5181856119f0565b9350611a61818560208601611a01565b611a6a81611a2b565b840191505092915050565b60006020820190508181036000830152611a8f8184611a3c565b905092915050565b6000819050919050565b611aaa81611a97565b8114611ab557600080fd5b50565b600081359050611ac781611aa1565b92915050565b600060208284031215611ae357611ae2611920565b5b6000611af184828501611ab8565b91505092915050565b600073ffffffffffffffffffffffffffffffffffffffff82169050919050565b6000611b2582611afa565b9050919050565b611b3581611b1a565b82525050565b6000602082019050611b506000830184611b2c565b92915050565b611b5f81611b1a565b8114611b6a57600080fd5b50565b600081359050611b7c81611b56565b92915050565b60008060408385031215611b9957611b98611920565b5b6000611ba785828601611b6d565b9250506020611bb885828601611ab8565b9150509250929050565b600080600060608486031215611bdb57611bda611920565b5b6000611be986828701611b6d565b9350506020611bfa86828701611b6d565b9250506040611c0b86828701611ab8565b9150509250925092565b600060208284031215611c2b57611c2a611920565b5b6000611c3984828501611b6d565b91505092915050565b611c4b81611a97565b82525050565b6000602082019050611c666000830184611c42565b92915050565b611c75816119af565b8114611c8057600080fd5b50565b600081359050611c9281611c6c565b92915050565b60008060408385031215611caf57611cae611920565b5b6000611cbd85828601611b6d565b9250506020611cce85828601611c83565b9150509250929050565b600080fd5b600080fd5b7f4e487b7100000000000000000000000000000000000000000000000000000000600052604160045260246000fd5b611d1a82611a2b565b810181811067ffffffffffffffff82111715611d3957611d38611ce2565b5b80604052505050565b6000611d4c611916565b9050611d588282611d11565b919050565b600067ffffffffffffffff821115611d7857611d77611ce2565b5b611d8182611a2b565b9050602081019050919050565b82818337600083830152505050565b6000611db0611dab84611d5d565b611d42565b905082815260208101848484011115611dcc57611dcb611cdd565b5b611dd7848285611d8e565b509392505050565b600082601f830112611df457611df3611cd8565b5b8135611e04848260208601611d9d565b91505092915050565b60008060008060808587031215611e2757611e26611920565b5b6000611e3587828801611b6d565b9450506020611e4687828801611b6d565b9350506040611e5787828801611ab8565b925050606085013567ffffffffffffffff811115611e7857611e77611925565b5b611e8487828801611ddf565b91505092959194509250565b60008060408385031215611ea757611ea6611920565b5b6000611eb585828601611b6d565b9250506020611ec685828601611b6d565b9150509250929050565b600067ffffffffffffffff821115611eeb57611eea611ce2565b5b611ef482611a2b565b9050602081019050919050565b6000611f14611f0f84611ed0565b611d42565b905082815260208101848484011115611f3057611f2f611cdd565b5b611f3b848285611d8e565b509392505050565b600082601f830112611f5857611f57611cd8565b5b8135611f68848260208601611f01565b91505092915050565b60008060408385031215611f8857611f87611920565b5b600083013567ffffffffffffffff811115611fa657611fa5611925565b5b611fb285828601611f43565b925050602083013567ffffffffffffffff811115611fd357611fd2611925565b5b611fdf85828601611f43565b9150509250929050565b7f4e487b7100000000000000000000000000000000000000000000000000000000600052602260045260246000fd5b6000600282049050600182168061203057607f821691505b60208210810361204357612042611fe9565b5b50919050565b600060608201905061205e6000830186611b2c565b61206b6020830185611c42565b6120786040830184611b2c565b949350505050565b7f4e487b7100000000000000000000000000000000000000000000000000000000600052603260045260246000fd5b600081905092915050565b7f7b226e616d65223a202200000000000000000000000000000000000000000000600082015250565b60006120f0600a836120af565b91506120fb826120ba565b600a82019050919050565b60008190508160005260206000209050919050565b6000815461212881612018565b61213281866120af565b9450600182166000811461214d576001811461216257612195565b60ff1983168652811515820286019350612195565b61216b85612106565b60005b8381101561218d5781548189015260018201915060208101905061216e565b838801955050505b50505092915050565b7f202d2d204e465420233a20000000000000000000000000000000000000000000600082015250565b60006121d4600b836120af565b91506121df8261219e565b600b82019050919050565b60006121f5826119e5565b6121ff81856120af565b935061220f818560208601611a01565b80840191505092915050565b7f222c20226465736372697074696f6e223a2022416e2065706963204e4654222c60008201527f2022696d616765223a2022697066733a2f2f0000000000000000000000000000602082015250565b60006122776032836120af565b91506122828261221b565b603282019050919050565b7f227d000000000000000000000000000000000000000000000000000000000000600082015250565b60006122c36002836120af565b91506122ce8261228d565b600282019050919050565b60006122e4826120e3565b91506122f0828661211b565b91506122fb826121c7565b915061230782856121ea565b91506123128261226a565b915061231e828461211b565b9150612329826122b6565b9150819050949350505050565b7f646174613a6170706c69636174696f6e2f6a736f6e3b6261736536342c000000600082015250565b600061236c601d836120af565b915061237782612336565b601d82019050919050565b600061238d8261235f565b915061239982846121ea565b915081905092915050565b60006020601f8301049050919050565b600082821b905092915050565b6000600883026123f17fffffffffffffffffffffffffffffffffffffffffffffffffffffffffffffffff826123b4565b6123fb86836123b4565b95508019841693508086168417925050509392505050565b6000819050919050565b600061243861243361242e84611a97565b612413565b611a97565b9050919050565b6000819050919050565b6124528361241d565b61246661245e8261243f565b8484546123c1565b825550505050565b600090565b61247b61246e565b612486818484612449565b505050565b5b818110156124aa5761249f600082612473565b60018101905061248c565b5050565b601f8211156124ef576124c081612106565b6124c9846123a4565b810160208510156124d8578190505b6124ec6124e4856123a4565b83018261248b565b50505b505050565b600082821c905092915050565b6000612512600019846008026124f4565b1980831691505092915050565b600061252b8383612501565b9150826002028217905092915050565b612544826119e5565b67ffffffffffffffff81111561255d5761255c611ce2565b5b6125678254612018565b6125728282856124ae565b600060209050601f8311600181146125a55760008415612593578287015190505b61259d858261251f565b865550612605565b601f1984166125b386612106565b60005b828110156125db578489015182556001820191506020850194506020810190506125b6565b868310156125f857848901516125f4601f891682612501565b8355505b6001600288020188555050505b505050505050565b7f4e487b7100000000000000000000000000000000000000000000000000000000600052601160045260246000fd5b600061264782611a97565b915061265283611a97565b925082820190508082111561266a5761266961260d565b5b92915050565b600081519050919050565b600082825260208201905092915050565b600061269782612670565b6126a1818561267b565b93506126b1818560208601611a01565b6126ba81611a2b565b840191505092915050565b60006080820190506126da6000830187611b2c565b6126e76020830186611b2c565b6126f46040830185611c42565b8181036060830152612706818461268c565b905095945050505050565b60008151905061272081611956565b92915050565b60006020828403121561273c5761273b611920565b5b600061274a84828501612711565b91505092915050565b7f4e487b7100000000000000000000000000000000000000000000000000000000600052601260045260246000fd5b600061278d82611a97565b915061279883611a97565b9250826127a8576127a7612753565b5b828204905092915050565b60006127be82611a97565b91506127c983611a97565b92508282026127d781611a97565b915082820484148315176127ee576127ed61260d565b5b5092915050565b6000606082019050818103600083015261280f8186611a3c565b905061281e6020830185611c42565b61282b6040830184611b2c565b949350505050565b60006040820190506128486000830185611b2c565b6128556020830184611c42565b9392505050565b7f4e487b7100000000000000000000000000000000000000000000000000000000600052605160045260246000fdfe416e204e465420772f20494420257320686173206265656e206d696e74656420746f2025734142434445464748494a4b4c4d4e4f505152535455565758595a6162636465666768696a6b6c6d6e6f707172737475767778797a303132333435363738392b2fa264697066735822122007e6125e6019d35c273471566bb33ea245782e2933d76fca5a8dbca6efa7c65664736f6c63430008180033",
  "linkReferences": {},
  "deployedLinkReferences": {}
}